{
  "contractName": "Marketplace",
  "abi": [
    {
      "inputs": [],
      "stateMutability": "nonpayable",
      "type": "constructor"
    },
    {
      "anonymous": false,
      "inputs": [
        {
          "indexed": false,
          "internalType": "uint256",
          "name": "id",
          "type": "uint256"
        },
        {
          "indexed": false,
          "internalType": "string",
          "name": "name",
          "type": "string"
        },
        {
          "indexed": false,
          "internalType": "uint256",
          "name": "price",
          "type": "uint256"
        },
        {
          "indexed": false,
          "internalType": "address",
          "name": "owner",
          "type": "address"
        },
        {
          "indexed": false,
          "internalType": "bool",
          "name": "purchased",
          "type": "bool"
        },
        {
          "indexed": false,
          "internalType": "uint256",
          "name": "upvotes",
          "type": "uint256"
        },
        {
          "indexed": false,
          "internalType": "string[5]",
          "name": "contributors",
          "type": "string[5]"
        }
      ],
      "name": "ProductCreated",
      "type": "event"
    },
    {
      "anonymous": false,
      "inputs": [
        {
          "indexed": false,
          "internalType": "uint256",
          "name": "id",
          "type": "uint256"
        },
        {
          "indexed": false,
          "internalType": "string",
          "name": "name",
          "type": "string"
        },
        {
          "indexed": false,
          "internalType": "uint256",
          "name": "price",
          "type": "uint256"
        },
        {
          "indexed": false,
          "internalType": "address",
          "name": "owner",
          "type": "address"
        },
        {
          "indexed": false,
          "internalType": "bool",
          "name": "purchased",
          "type": "bool"
        },
        {
          "indexed": false,
          "internalType": "uint256",
          "name": "upvotes",
          "type": "uint256"
        },
        {
          "indexed": false,
          "internalType": "string[5]",
          "name": "contributors",
          "type": "string[5]"
        }
      ],
      "name": "ProductPurchased",
      "type": "event"
    },
    {
      "anonymous": false,
      "inputs": [
        {
          "indexed": false,
          "internalType": "uint256",
          "name": "vote",
          "type": "uint256"
        }
      ],
      "name": "upVote",
      "type": "event"
    },
    {
      "inputs": [],
      "name": "historyProdCount",
      "outputs": [
        {
          "internalType": "uint256",
          "name": "",
          "type": "uint256"
        }
      ],
      "stateMutability": "view",
      "type": "function",
      "constant": true
    },
    {
      "inputs": [],
      "name": "name",
      "outputs": [
        {
          "internalType": "string",
          "name": "",
          "type": "string"
        }
      ],
      "stateMutability": "view",
      "type": "function",
      "constant": true
    },
    {
      "inputs": [],
      "name": "productCount",
      "outputs": [
        {
          "internalType": "uint256",
          "name": "",
          "type": "uint256"
        }
      ],
      "stateMutability": "view",
      "type": "function",
      "constant": true
    },
    {
      "inputs": [
        {
          "internalType": "uint256",
          "name": "",
          "type": "uint256"
        }
      ],
      "name": "products",
      "outputs": [
        {
          "internalType": "uint256",
          "name": "id",
          "type": "uint256"
        },
        {
          "internalType": "string",
          "name": "name",
          "type": "string"
        },
        {
          "internalType": "uint256",
          "name": "price",
          "type": "uint256"
        },
        {
          "internalType": "address",
          "name": "owner",
          "type": "address"
        },
        {
          "internalType": "bool",
          "name": "purchased",
          "type": "bool"
        },
        {
          "internalType": "uint256",
          "name": "upvotes",
          "type": "uint256"
        }
      ],
      "stateMutability": "view",
      "type": "function",
      "constant": true
    },
    {
      "inputs": [],
      "name": "products_historical",
      "outputs": [
        {
          "internalType": "string",
          "name": "",
          "type": "string"
        }
      ],
      "stateMutability": "view",
      "type": "function",
      "constant": true
    },
    {
      "inputs": [],
      "name": "vote_end",
      "outputs": [
        {
          "internalType": "uint256",
          "name": "",
          "type": "uint256"
        }
      ],
      "stateMutability": "view",
      "type": "function",
      "constant": true
    },
    {
      "inputs": [
        {
          "internalType": "uint256",
          "name": "_id",
          "type": "uint256"
        }
      ],
      "name": "getArr",
      "outputs": [
        {
          "internalType": "string[5]",
          "name": "",
          "type": "string[5]"
        }
      ],
      "stateMutability": "view",
      "type": "function",
      "constant": true
    },
    {
      "inputs": [
        {
          "internalType": "address",
          "name": "_addr",
          "type": "address"
        }
      ],
      "name": "addressToString",
      "outputs": [
        {
          "internalType": "string",
          "name": "",
          "type": "string"
        }
      ],
      "stateMutability": "pure",
      "type": "function",
      "constant": true
    },
    {
      "inputs": [],
      "name": "createVoteEnd",
      "outputs": [],
      "stateMutability": "nonpayable",
      "type": "function"
    },
    {
      "inputs": [],
      "name": "getCurrentVote",
      "outputs": [
        {
          "internalType": "uint256",
          "name": "",
          "type": "uint256"
        }
      ],
      "stateMutability": "view",
      "type": "function",
      "constant": true
    },
    {
      "inputs": [],
      "name": "resetProducts",
      "outputs": [],
      "stateMutability": "view",
      "type": "function",
      "constant": true
    },
    {
      "inputs": [
        {
          "internalType": "string",
          "name": "_name",
          "type": "string"
        },
        {
          "internalType": "uint256",
          "name": "_price",
          "type": "uint256"
        },
        {
          "internalType": "uint256",
          "name": "upvotes",
          "type": "uint256"
        },
        {
          "internalType": "string[5]",
          "name": "contributors",
          "type": "string[5]"
        }
      ],
      "name": "createProduct",
      "outputs": [],
      "stateMutability": "nonpayable",
      "type": "function"
    },
    {
      "inputs": [
        {
          "internalType": "uint256",
          "name": "_id",
          "type": "uint256"
        }
      ],
      "name": "purchaseProduct",
      "outputs": [],
      "stateMutability": "payable",
      "type": "function",
      "payable": true
    }
  ],
  "bytecode": "0x60806040526000600155600060025560006003553480156200002057600080fd5b506040518060400160405280601081526020017f65787175697369746520636f7270736500000000000000000000000000000000815250600090805190602001906200006e929190620000a5565b50604051806020016040528060008152506005908051906020019062000096929190620000a5565b506000600281905550620001ba565b828054620000b39062000155565b90600052602060002090601f016020900481019282620000d7576000855562000123565b82601f10620000f257805160ff191683800117855562000123565b8280016001018555821562000123579182015b828111156200012257825182559160200191906001019062000105565b5b50905062000132919062000136565b5090565b5b808211156200015157600081600090555060010162000137565b5090565b600060028204905060018216806200016e57607f821691505b602082108114156200018557620001846200018b565b5b50919050565b7f4e487b7100000000000000000000000000000000000000000000000000000000600052602260045260246000fd5b6127aa80620001ca6000396000f3fe6080604052600436106100c25760003560e01c80636e2a26351161007f578063a71ce3ea11610059578063a71ce3ea14610260578063dc56028d14610277578063e0f6ef87146102a2578063f5f3e5e6146102cd576100c2565b80636e2a2635146101de5780637acc0b20146101f55780639cafe91914610237576100c2565b806306fdde03146100c757806338e76a03146100f257806340f19b411461010e5780634308cf35146101395780635e57966d146101765780635e8a2932146101b3575b600080fd5b3480156100d357600080fd5b506100dc6102f8565b6040516100e991906122f0565b60405180910390f35b61010c6004803603810190610107919061217d565b610386565b005b34801561011a57600080fd5b50610123610820565b60405161013091906122f0565b60405180910390f35b34801561014557600080fd5b50610160600480360381019061015b919061217d565b6108ae565b60405161016d91906122ce565b60405180910390f35b34801561018257600080fd5b5061019d600480360381019061019891906120c1565b610997565b6040516101aa91906122f0565b60405180910390f35b3480156101bf57600080fd5b506101c8610df8565b6040516101d59190612312565b60405180910390f35b3480156101ea57600080fd5b506101f3610dfe565b005b34801561020157600080fd5b5061021c6004803603810190610217919061217d565b611055565b60405161022e9695949392919061232d565b60405180910390f35b34801561024357600080fd5b5061025e600480360381019061025991906120ea565b611146565b005b34801561026c57600080fd5b5061027561132f565b005b34801561028357600080fd5b5061028c611861565b6040516102999190612312565b60405180910390f35b3480156102ae57600080fd5b506102b761186b565b6040516102c49190612312565b60405180910390f35b3480156102d957600080fd5b506102e2611871565b6040516102ef9190612312565b60405180910390f35b600080546103059061262d565b80601f01602080910402602001604051908101604052809291908181526020018280546103319061262d565b801561037e5780601f106103535761010080835404028352916020019161037e565b820191906000526020600020905b81548152906001019060200180831161036157829003601f168201915b505050505081565b6000600460008381526020019081526020016000206040518060e0016040529081600082015481526020016001820180546103c09061262d565b80601f01602080910402602001604051908101604052809291908181526020018280546103ec9061262d565b80156104395780601f1061040e57610100808354040283529160200191610439565b820191906000526020600020905b81548152906001019060200180831161041c57829003601f168201915b50505050508152602001600282015481526020016003820160009054906101000a900473ffffffffffffffffffffffffffffffffffffffff1673ffffffffffffffffffffffffffffffffffffffff1673ffffffffffffffffffffffffffffffffffffffff1681526020016003820160149054906101000a900460ff161515151581526020016004820154815260200160058201600580602002604051908101604052809291906000905b828210156105865783820180546104f99061262d565b80601f01602080910402602001604051908101604052809291908181526020018280546105259061262d565b80156105725780601f1061054757610100808354040283529160200191610572565b820191906000526020600020905b81548152906001019060200180831161055557829003601f168201915b5050505050815260200190600101906104e3565b50505050815250509050600081606001519050600082600001511180156105b35750600154826000015111155b6105bc57600080fd5b81604001513410156105cd57600080fd5b8160800151156105dc57600080fd5b3373ffffffffffffffffffffffffffffffffffffffff168173ffffffffffffffffffffffffffffffffffffffff16141561061557600080fd5b33826060019073ffffffffffffffffffffffffffffffffffffffff16908173ffffffffffffffffffffffffffffffffffffffff1681525050600182608001901515908115158152505060018260a00181815161067191906124f3565b9150818152505061068133610997565b8260c001518360a00151600581106106c2577f4e487b7100000000000000000000000000000000000000000000000000000000600052603260045260246000fd5b60200201819052508160046000858152602001908152602001600020600082015181600001556020820151816001019080519060200190610704929190611dd8565b506040820151816002015560608201518160030160006101000a81548173ffffffffffffffffffffffffffffffffffffffff021916908373ffffffffffffffffffffffffffffffffffffffff16021790555060808201518160030160146101000a81548160ff02191690831515021790555060a0820151816004015560c082015181600501906005610797929190611e5e565b509050507f8188e44b6717f640d11be2fb980a4cffe0c626ea8ab72f1fe68e9f1f22dcea4d600154836020015184604001513360018760a001518860c001516040516107e99796959493929190612395565b60405180910390a160028260a00151101561081b5761081a826020015183604001518460a001518560c00151611146565b5b505050565b6005805461082d9061262d565b80601f01602080910402602001604051908101604052809291908181526020018280546108599061262d565b80156108a65780601f1061087b576101008083540402835291602001916108a6565b820191906000526020600020905b81548152906001019060200180831161088957829003601f168201915b505050505081565b6108b6611eb1565b600060046000848152602001908152602001600020905080600501600580602002604051908101604052809291906000905b8282101561098b5783820180546108fe9061262d565b80601f016020809104026020016040519081016040528092919081815260200182805461092a9061262d565b80156109775780601f1061094c57610100808354040283529160200191610977565b820191906000526020600020905b81548152906001019060200180831161095a57829003601f168201915b5050505050815260200190600101906108e8565b50505050915050919050565b606060008273ffffffffffffffffffffffffffffffffffffffff1660001b905060006040518060400160405280601081526020017f303132333435363738396162636465660000000000000000000000000000000081525090506000602a67ffffffffffffffff811115610a34577f4e487b7100000000000000000000000000000000000000000000000000000000600052604160045260246000fd5b6040519080825280601f01601f191660200182016040528015610a665781602001600182028036833780820191505090505b5090507f300000000000000000000000000000000000000000000000000000000000000081600081518110610ac4577f4e487b7100000000000000000000000000000000000000000000000000000000600052603260045260246000fd5b60200101907effffffffffffffffffffffffffffffffffffffffffffffffffffffffffffff1916908160001a9053507f780000000000000000000000000000000000000000000000000000000000000081600181518110610b4e577f4e487b7100000000000000000000000000000000000000000000000000000000600052603260045260246000fd5b60200101907effffffffffffffffffffffffffffffffffffffffffffffffffffffffffffff1916908160001a90535060005b6014811015610dec5782600485600c84610b9a91906124f3565b60208110610bd1577f4e487b7100000000000000000000000000000000000000000000000000000000600052603260045260246000fd5b1a60f81b7effffffffffffffffffffffffffffffffffffffffffffffffffffffffffffff1916901c60f81c60ff1681518110610c36577f4e487b7100000000000000000000000000000000000000000000000000000000600052603260045260246000fd5b602001015160f81c60f81b82600283610c4f9190612549565b6002610c5b91906124f3565b81518110610c92577f4e487b7100000000000000000000000000000000000000000000000000000000600052603260045260246000fd5b60200101907effffffffffffffffffffffffffffffffffffffffffffffffffffffffffffff1916908160001a90535082600f60f81b85600c84610cd591906124f3565b60208110610d0c577f4e487b7100000000000000000000000000000000000000000000000000000000600052603260045260246000fd5b1a60f81b1660f81c60ff1681518110610d4e577f4e487b7100000000000000000000000000000000000000000000000000000000600052603260045260246000fd5b602001015160f81c60f81b82600283610d679190612549565b6003610d7391906124f3565b81518110610daa577f4e487b7100000000000000000000000000000000000000000000000000000000600052603260045260246000fd5b60200101907effffffffffffffffffffffffffffffffffffffffffffffffffffffffffffff1916908160001a9053508080610de49061265f565b915050610b80565b50809350505050919050565b60025481565b610e06611ed8565b60005b60025481101561105157600460008281526020019081526020016000206040518060e001604052908160008201548152602001600182018054610e4b9061262d565b80601f0160208091040260200160405190810160405280929190818152602001828054610e779061262d565b8015610ec45780601f10610e9957610100808354040283529160200191610ec4565b820191906000526020600020905b815481529060010190602001808311610ea757829003601f168201915b50505050508152602001600282015481526020016003820160009054906101000a900473ffffffffffffffffffffffffffffffffffffffff1673ffffffffffffffffffffffffffffffffffffffff1673ffffffffffffffffffffffffffffffffffffffff1681526020016003820160149054906101000a900460ff161515151581526020016004820154815260200160058201600580602002604051908101604052809291906000905b82821015611011578382018054610f849061262d565b80601f0160208091040260200160405190810160405280929190818152602001828054610fb09061262d565b8015610ffd5780601f10610fd257610100808354040283529160200191610ffd565b820191906000526020600020905b815481529060010190602001808311610fe057829003601f168201915b505050505081526020019060010190610f6e565b5050505081525050915060405180602001604052806000815250826020018190525060008260a001818152505080806110499061265f565b915050610e09565b5050565b600460205280600052604060002060009150905080600001549080600101805461107e9061262d565b80601f01602080910402602001604051908101604052809291908181526020018280546110aa9061262d565b80156110f75780601f106110cc576101008083540402835291602001916110f7565b820191906000526020600020905b8154815290600101906020018083116110da57829003601f168201915b5050505050908060020154908060030160009054906101000a900473ffffffffffffffffffffffffffffffffffffffff16908060030160149054906101000a900460ff16908060040154905086565b600084511161115457600080fd5b6000831161116157600080fd5b600160008154809291906111749061265f565b919050555061118233610997565b8183600581106111bb577f4e487b7100000000000000000000000000000000000000000000000000000000600052603260045260246000fd5b60200201819052506040518060e0016040528060015481526020018581526020018481526020013373ffffffffffffffffffffffffffffffffffffffff1681526020016000151581526020018381526020018281525060046000600154815260200190815260200160002060008201518160000155602082015181600101908051906020019061124c929190611dd8565b506040820151816002015560608201518160030160006101000a81548173ffffffffffffffffffffffffffffffffffffffff021916908373ffffffffffffffffffffffffffffffffffffffff16021790555060808201518160030160146101000a81548160ff02191690831515021790555060a0820151816004015560c0820151816005019060056112df929190611e5e565b509050507fc82765ea43bf0e595f0a19d68b0c7767b21c3fdc9fce2e84cb952ef6dee2fe78600154858533600087876040516113219796959493929190612395565b60405180910390a150505050565b600260008154809291906113429061265f565b9190505550600a6002541061182657611359611ed8565b60005b60025481101561172c57600460008281526020019081526020016000206040518060e00160405290816000820154815260200160018201805461139e9061262d565b80601f01602080910402602001604051908101604052809291908181526020018280546113ca9061262d565b80156114175780601f106113ec57610100808354040283529160200191611417565b820191906000526020600020905b8154815290600101906020018083116113fa57829003601f168201915b50505050508152602001600282015481526020016003820160009054906101000a900473ffffffffffffffffffffffffffffffffffffffff1673ffffffffffffffffffffffffffffffffffffffff1673ffffffffffffffffffffffffffffffffffffffff1681526020016003820160149054906101000a900460ff161515151581526020016004820154815260200160058201600580602002604051908101604052809291906000905b828210156115645783820180546114d79061262d565b80601f01602080910402602001604051908101604052809291908181526020018280546115039061262d565b80156115505780601f1061152557610100808354040283529160200191611550565b820191906000526020600020905b81548152906001019060200180831161153357829003601f168201915b5050505050815260200190600101906114c1565b5050505081525050915060028260a0015110611719576003600081548092919061158d9061265f565b9190505550611702600580546115a29061262d565b80601f01602080910402602001604051908101604052809291908181526020018280546115ce9061262d565b801561161b5780601f106115f05761010080835404028352916020019161161b565b820191906000526020600020905b8154815290600101906020018083116115fe57829003601f168201915b50505050506116fd6004600085815260200190815260200160002060010180546116449061262d565b80601f01602080910402602001604051908101604052809291908181526020018280546116709061262d565b80156116bd5780601f10611692576101008083540402835291602001916116bd565b820191906000526020600020905b8154815290600101906020018083116116a057829003601f168201915b50505050506040518060400160405280600181526020017f2000000000000000000000000000000000000000000000000000000000000000815250611877565b611877565b60059080519060200190611717929190611dd8565b505b80806117249061265f565b91505061135c565b506117f66005805461173d9061262d565b80601f01602080910402602001604051908101604052809291908181526020018280546117699061262d565b80156117b65780601f1061178b576101008083540402835291602001916117b6565b820191906000526020600020905b81548152906001019060200180831161179957829003601f168201915b50505050506040518060400160405280600281526020017f0a0a000000000000000000000000000000000000000000000000000000000000815250611877565b6005908051906020019061180b929190611dd8565b50611814610dfe565b60006002819055506000600181905550505b7fec859db5a3c1ca3ee301d012a70f0e287a104754cd2f264283bb84531f0eed546002546040516118579190612312565b60405180910390a1565b6000600254905090565b60015481565b60035481565b60606118b383836040518060200160405280600081525060405180602001604052806000815250604051806020016040528060008152506118bb565b905092915050565b6060600086905060008690506000869050600086905060008690506000815183518551875189516118ec91906124f3565b6118f691906124f3565b61190091906124f3565b61190a91906124f3565b67ffffffffffffffff811115611949577f4e487b7100000000000000000000000000000000000000000000000000000000600052604160045260246000fd5b6040519080825280601f01601f19166020018201604052801561197b5781602001600182028036833780820191505090505b5090506000819050600080600090505b8851811015611a5f578881815181106119cd577f4e487b7100000000000000000000000000000000000000000000000000000000600052603260045260246000fd5b602001015160f81c60f81b8383806119e49061265f565b945081518110611a1d577f4e487b7100000000000000000000000000000000000000000000000000000000600052603260045260246000fd5b60200101907effffffffffffffffffffffffffffffffffffffffffffffffffffffffffffff1916908160001a9053508080611a579061265f565b91505061198b565b600090505b8751811015611b3857878181518110611aa6577f4e487b7100000000000000000000000000000000000000000000000000000000600052603260045260246000fd5b602001015160f81c60f81b838380611abd9061265f565b945081518110611af6577f4e487b7100000000000000000000000000000000000000000000000000000000600052603260045260246000fd5b60200101907effffffffffffffffffffffffffffffffffffffffffffffffffffffffffffff1916908160001a9053508080611b309061265f565b915050611a64565b600090505b8651811015611c1157868181518110611b7f577f4e487b7100000000000000000000000000000000000000000000000000000000600052603260045260246000fd5b602001015160f81c60f81b838380611b969061265f565b945081518110611bcf577f4e487b7100000000000000000000000000000000000000000000000000000000600052603260045260246000fd5b60200101907effffffffffffffffffffffffffffffffffffffffffffffffffffffffffffff1916908160001a9053508080611c099061265f565b915050611b3d565b600090505b8551811015611cea57858181518110611c58577f4e487b7100000000000000000000000000000000000000000000000000000000600052603260045260246000fd5b602001015160f81c60f81b838380611c6f9061265f565b945081518110611ca8577f4e487b7100000000000000000000000000000000000000000000000000000000600052603260045260246000fd5b60200101907effffffffffffffffffffffffffffffffffffffffffffffffffffffffffffff1916908160001a9053508080611ce29061265f565b915050611c16565b600090505b8451811015611dc357848181518110611d31577f4e487b7100000000000000000000000000000000000000000000000000000000600052603260045260246000fd5b602001015160f81c60f81b838380611d489061265f565b945081518110611d81577f4e487b7100000000000000000000000000000000000000000000000000000000600052603260045260246000fd5b60200101907effffffffffffffffffffffffffffffffffffffffffffffffffffffffffffff1916908160001a9053508080611dbb9061265f565b915050611cef565b82995050505050505050505095945050505050565b828054611de49061262d565b90600052602060002090601f016020900481019282611e065760008555611e4d565b82601f10611e1f57805160ff1916838001178555611e4d565b82800160010185558215611e4d579182015b82811115611e4c578251825591602001919060010190611e31565b5b509050611e5a9190611f33565b5090565b8260058101928215611ea0579160200282015b82811115611e9f578251829080519060200190611e8f929190611dd8565b5091602001919060010190611e71565b5b509050611ead9190611f50565b5090565b6040518060a001604052806005905b6060815260200190600190039081611ec05790505090565b6040518060e00160405280600081526020016060815260200160008152602001600073ffffffffffffffffffffffffffffffffffffffff16815260200160001515815260200160008152602001611f2d611eb1565b81525090565b5b80821115611f4c576000816000905550600101611f34565b5090565b5b80821115611f705760008181611f679190611f74565b50600101611f51565b5090565b508054611f809061262d565b6000825580601f10611f925750611fb1565b601f016020900490600052602060002090810190611fb09190611f33565b5b50565b6000611fc7611fc284612443565b612412565b9050808260005b85811015611ffe5781358501611fe48882612082565b845260208401935060208301925050600181019050611fce565b5050509392505050565b600061201b61201684612469565b612412565b90508281526020810184848401111561203357600080fd5b61203e8482856125eb565b509392505050565b60008135905061205581612746565b92915050565b600082601f83011261206c57600080fd5b6005612079848285611fb4565b91505092915050565b600082601f83011261209357600080fd5b81356120a3848260208601612008565b91505092915050565b6000813590506120bb8161275d565b92915050565b6000602082840312156120d357600080fd5b60006120e184828501612046565b91505092915050565b6000806000806080858703121561210057600080fd5b600085013567ffffffffffffffff81111561211a57600080fd5b61212687828801612082565b9450506020612137878288016120ac565b9350506040612148878288016120ac565b925050606085013567ffffffffffffffff81111561216557600080fd5b6121718782880161205b565b91505092959194509250565b60006020828403121561218f57600080fd5b600061219d848285016120ac565b91505092915050565b60006121b2838361224d565b905092915050565b6121c3816125a3565b82525050565b60006121d4826124a3565b6121de81856124c6565b9350836020820285016121f085612499565b8060005b8581101561222c578484038952815161220d85826121a6565b9450612218836124b9565b925060208a019950506001810190506121f4565b50829750879550505050505092915050565b612247816125b5565b82525050565b6000612258826124ae565b61226281856124d1565b93506122728185602086016125fa565b61227b81612735565b840191505092915050565b6000612291826124ae565b61229b81856124e2565b93506122ab8185602086016125fa565b6122b481612735565b840191505092915050565b6122c8816125e1565b82525050565b600060208201905081810360008301526122e881846121c9565b905092915050565b6000602082019050818103600083015261230a8184612286565b905092915050565b600060208201905061232760008301846122bf565b92915050565b600060c08201905061234260008301896122bf565b81810360208301526123548188612286565b905061236360408301876122bf565b61237060608301866121ba565b61237d608083018561223e565b61238a60a08301846122bf565b979650505050505050565b600060e0820190506123aa600083018a6122bf565b81810360208301526123bc8189612286565b90506123cb60408301886122bf565b6123d860608301876121ba565b6123e5608083018661223e565b6123f260a08301856122bf565b81810360c083015261240481846121c9565b905098975050505050505050565b6000604051905081810181811067ffffffffffffffff8211171561243957612438612706565b5b8060405250919050565b600067ffffffffffffffff82111561245e5761245d612706565b5b602082029050919050565b600067ffffffffffffffff82111561248457612483612706565b5b601f19601f8301169050602081019050919050565b6000819050919050565b600060059050919050565b600081519050919050565b6000602082019050919050565b600081905092915050565b600082825260208201905092915050565b600082825260208201905092915050565b60006124fe826125e1565b9150612509836125e1565b9250827fffffffffffffffffffffffffffffffffffffffffffffffffffffffffffffffff0382111561253e5761253d6126a8565b5b828201905092915050565b6000612554826125e1565b915061255f836125e1565b9250817fffffffffffffffffffffffffffffffffffffffffffffffffffffffffffffffff0483118215151615612598576125976126a8565b5b828202905092915050565b60006125ae826125c1565b9050919050565b60008115159050919050565b600073ffffffffffffffffffffffffffffffffffffffff82169050919050565b6000819050919050565b82818337600083830152505050565b60005b838110156126185780820151818401526020810190506125fd565b83811115612627576000848401525b50505050565b6000600282049050600182168061264557607f821691505b60208210811415612659576126586126d7565b5b50919050565b600061266a826125e1565b91507fffffffffffffffffffffffffffffffffffffffffffffffffffffffffffffffff82141561269d5761269c6126a8565b5b600182019050919050565b7f4e487b7100000000000000000000000000000000000000000000000000000000600052601160045260246000fd5b7f4e487b7100000000000000000000000000000000000000000000000000000000600052602260045260246000fd5b7f4e487b7100000000000000000000000000000000000000000000000000000000600052604160045260246000fd5b6000601f19601f8301169050919050565b61274f816125a3565b811461275a57600080fd5b50565b612766816125e1565b811461277157600080fd5b5056fea2646970667358221220bf03be0e0cd6d97560a30ae1d710069c38572f01d4be7a90c26eaf5f15b955fb64736f6c63430008000033",
  "immutableReferences": {},
  "source": "pragma solidity ^0.8.0;\n\ncontract Marketplace {\n\tstring public name;\n\tuint public productCount = 0;\n\tuint public vote_end = 0;\n\tuint public historyProdCount = 0;\n\tmapping(uint => Product) public products;\n\t// store the stories that have reached ten upvotes for display\n\tstring public products_historical;\n\n\tstruct Product {\n\t\tuint id;\n\t\tstring name;\n\t\tuint price;\n\t\taddress owner;\n\t\tbool purchased;\n\t\tuint upvotes;\n\t\tstring[5] contributors;\n\t}\n\n\tevent ProductCreated(\n\t\tuint id,\n\t\tstring name,\n\t\tuint price,\n\t\taddress owner,\n\t\tbool purchased,\n\t\tuint upvotes,\n\t\tstring[5] contributors\t\n\t);\n\n\tevent upVote(\n\t\tuint vote\n\t);\n\n\tevent ProductPurchased(\n\t\tuint id,\n\t\tstring name,\n\t\tuint price,\n\t\taddress owner,\n\t\tbool purchased,\n\t\tuint upvotes,\n\t\tstring[5] contributors\n\t);\n\n\tstruct voteEnd{\n\t\tuint votes;\n\t}\n\t\n\n\tconstructor() {\n\t\tname = \"exquisite corpse\";\n\t\tproducts_historical ='';\n\t\tvote_end = 0;\n\t}\n\n\tfunction getArr(uint _id) public view returns (string[5] memory) {\n\t\tProduct storage myProduct = products[_id];\n    \treturn myProduct.contributors;\n\t}\n\n\tfunction strConcat(string memory _a, string memory _b, string memory _c, string memory _d, string memory _e) internal pure returns (string memory){\n    bytes memory _ba = bytes(_a);\n    bytes memory _bb = bytes(_b);\n    bytes memory _bc = bytes(_c);\n    bytes memory _bd = bytes(_d);\n    bytes memory _be = bytes(_e);\n    string memory abcde = new string(_ba.length + _bb.length + _bc.length + _bd.length + _be.length);\n    bytes memory babcde = bytes(abcde);\n    uint k = 0;\n\tuint i = 0;\n    for (i = 0; i < _ba.length; i++) babcde[k++] = _ba[i];\n    for (i = 0; i < _bb.length; i++) babcde[k++] = _bb[i];\n    for (i = 0; i < _bc.length; i++) babcde[k++] = _bc[i];\n    for (i = 0; i < _bd.length; i++) babcde[k++] = _bd[i];\n    for (i = 0; i < _be.length; i++) babcde[k++] = _be[i];\n    return string(babcde);\n\t}\n\n\tfunction strConcat(string memory _a, string memory _b) internal pure returns (string memory) {\n    return strConcat(_a, _b, \"\", \"\", \"\");\n}\n\n\tfunction toString(uint _i) internal pure returns (string memory _uintAsString) {\n        if (_i == 0) {\n            return \"0\";\n        }\n        uint j = _i;\n        uint len;\n        while (j != 0) {\n            len++;\n            j /= 10;\n        }\n        bytes memory bstr = new bytes(len);\n        uint k = len;\n        while (_i != 0) {\n            k = k-1;\n            uint8 temp = (48 + uint8(_i - _i / 10 * 10));\n            bytes1 b1 = bytes1(temp);\n            bstr[k] = b1;\n            _i /= 10;\n        }\n        return string(bstr);\n    }\n\tfunction addressToString(address _addr) public pure returns (string memory) {\n\t\tbytes32 value = bytes32(uint256(uint160(_addr)));\n\t\tbytes memory alphabet = \"0123456789abcdef\";\n\n\t\tbytes memory str = new bytes(42);\n\t\tstr[0] = '0';\n\t\tstr[1] = 'x';\n\t\tfor (uint i = 0; i < 20; i++) {\n\t\t\tstr[2+i*2] = alphabet[uint8(value[i + 12] >> 4)];\n\t\t\tstr[3+i*2] = alphabet[uint8(value[i + 12] & 0x0f)];\n\t\t}\n\t\treturn string(str);\n\t}\n\n\tfunction createVoteEnd() public {\n\t\tvote_end++;\n\t\tif(vote_end >= 10){\n\t\t\tProduct memory _product;\n\t\t\tfor(uint i = 0; i < vote_end; i++){\n\t\t\t\t_product = products[i];\n\t\t\t\tif(_product.upvotes >= 2){\n\t\t\t\t\t\thistoryProdCount++;\n\t\t\t\t\t\tproducts_historical = strConcat(products_historical, strConcat(products[i].name, \" \"));\n\t\t\t\t}\n\t\t\t}\n\t\t\tproducts_historical = strConcat(products_historical, \"\\n\\n\");\n\t\t\tresetProducts();\n\t\t\tvote_end = 0;\n\t\t\tproductCount = 0;\n\t\t}\n\t\temit upVote(vote_end);\n\t}\n\n\tfunction getCurrentVote() public view returns (uint) {\n\t\t// portion where we plug in tufts account\n\t\t// address(_seller).transfer(msg.value);\n\t\treturn vote_end;\n\t}\n\n\n\t// function checkVotesLoad() public{\n\t// \tProduct memory _product;\n\t// \tfor(uint i = 0; i < vote_end; i++){\n\t// \t\t_product = products[i];\n\t// \t\tif(_product.upvotes >= 2){\n\t// \t\t\t\thistoryProdCount++;\n\t// \t\t\t\t_product = products[i];\n \t// \t\t\t\tproducts_historical[historyProdCount] = _product;\n\t// \t\t}\n\t// \t}\n\t// }\n\n\tfunction resetProducts() public view{\n\t\tProduct memory _product;\n\t\tfor(uint i = 0; i < vote_end; i++){\n\t\t\t_product = products[i];\n\t\t\t_product.name = \"\";\n\t\t\t_product.upvotes = 0;\n\t\t}\n\t}\n\n\n\tfunction createProduct(string memory _name, uint _price, uint upvotes, string[5] memory contributors) public {\n\t\t// require a name\n\t\trequire(bytes(_name).length > 0);\n\t\t// require a valid price\n\t\trequire(_price > 0);\n\t\t// make sure params good\n\t\t// inc products count\n\t\tproductCount++;\n\t\t//add owner to contributors\n\t\tcontributors[upvotes] = addressToString(msg.sender);\n\t\t// create the product\n\t\tproducts[productCount] = Product(productCount, _name, _price, msg.sender, false, upvotes, contributors);\n\t\t// trigger an event\t\n\t\temit ProductCreated(productCount, _name, _price, msg.sender, false, upvotes, contributors);\n\t}\n\n\tfunction purchaseProduct(uint _id) public payable {\n\t\t// fetch product\n\t\tProduct memory _product = products[_id];\t\n\t\t// fetch the owner\n\t\taddress _seller = _product.owner;\n\t\t// make sure the product has a valid id\n\t\trequire(_product.id > 0 && _product.id <= productCount);\n\t\t// make sure they sent enough ether\n\t\trequire(msg.value >= _product.price);\n\t\t// require product has not already been purchased\n\t\trequire(!_product.purchased);\n\t\t// require that the buyer is not the seller\n\t\trequire(_seller != msg.sender);\n\t\t// require that the buyer is not a previous contributor (i.e already upvoted)\n\t\t\n\n\t\t// purchase it -> transfer ownership to buyer\n\t\t_product.owner = msg.sender;\n\t\t// mark as purchased\n\t\t_product.purchased = true;\n\t\t// increment upvotes of product\n\t\t_product.upvotes += 1;\n\t\t//add purchaser to contributors\n\t\t_product.contributors[_product.upvotes] = addressToString(msg.sender);\n\t\t//update the product\n\t\tproducts[_id] = _product;\n\t\t// pay the seller by sending them ether\n\t\t// address(_seller).transfer(msg.value);\n\t\t// trigger an event\n\t\temit ProductPurchased(productCount, _product.name, _product.price, msg.sender, true, _product.upvotes, _product.contributors);\n\n\t\tif(_product.upvotes < 2){\n\t\t\tcreateProduct(_product.name, _product.price, _product.upvotes, _product.contributors);\n\t\t}\n\t}\n}",
  "sourcePath": "/Users/timseifert/corpse/src/contracts/Marketplace.sol",
  "compiler": {
    "name": "solc",
    "version": "0.8.0+commit.c7dfd78e.Emscripten.clang"
  },
  "schemaVersion": "3.4.13",
  "updatedAt": "2023-06-01T21:20:34.509Z",
  "networkType": "ethereum",
  "devdoc": {
    "kind": "dev",
    "methods": {},
    "version": 1
  },
  "userdoc": {
    "kind": "user",
    "methods": {},
    "version": 1
  }
}